{
  "_format": "hh-sol-artifact-1",
  "contractName": "Lottery",
  "sourceName": "contracts/Lottery.sol",
  "abi": [
    {
      "inputs": [],
      "stateMutability": "nonpayable",
      "type": "constructor"
    },
    {
      "inputs": [],
      "name": "BuyLottery",
      "outputs": [],
      "stateMutability": "payable",
      "type": "function"
    },
    {
      "inputs": [],
      "name": "Manager",
      "outputs": [
        {
          "internalType": "address",
          "name": "",
          "type": "address"
        }
      ],
      "stateMutability": "view",
      "type": "function"
    },
    {
      "inputs": [],
      "name": "Random",
      "outputs": [
        {
          "internalType": "uint256",
          "name": "",
          "type": "uint256"
        }
      ],
      "stateMutability": "view",
      "type": "function"
    },
    {
      "inputs": [
        {
          "internalType": "uint256",
          "name": "",
          "type": "uint256"
        }
      ],
      "name": "Winners",
      "outputs": [
        {
          "internalType": "address",
          "name": "",
          "type": "address"
        }
      ],
      "stateMutability": "view",
      "type": "function"
    },
    {
      "inputs": [],
      "name": "Winners_Count",
      "outputs": [
        {
          "internalType": "uint256",
          "name": "",
          "type": "uint256"
        }
      ],
      "stateMutability": "view",
      "type": "function"
    },
    {
      "inputs": [],
      "name": "choose_winner",
      "outputs": [
        {
          "internalType": "address",
          "name": "",
          "type": "address"
        },
        {
          "internalType": "uint256",
          "name": "",
          "type": "uint256"
        }
      ],
      "stateMutability": "nonpayable",
      "type": "function"
    },
    {
      "inputs": [],
      "name": "getBalance",
      "outputs": [
        {
          "internalType": "uint256",
          "name": "",
          "type": "uint256"
        }
      ],
      "stateMutability": "view",
      "type": "function"
    },
    {
      "inputs": [],
      "name": "no_of_Lotteries",
      "outputs": [
        {
          "internalType": "uint256",
          "name": "",
          "type": "uint256"
        }
      ],
      "stateMutability": "view",
      "type": "function"
    },
    {
      "inputs": [
        {
          "internalType": "uint256",
          "name": "",
          "type": "uint256"
        }
      ],
      "name": "participants",
      "outputs": [
        {
          "internalType": "address payable",
          "name": "",
          "type": "address"
        }
      ],
      "stateMutability": "view",
      "type": "function"
    }
  ],
  "bytecode": "0x6080604052600060045534801561001557600080fd5b50336000806101000a81548173ffffffffffffffffffffffffffffffffffffffff021916908373ffffffffffffffffffffffffffffffffffffffff160217905550610d3d806100656000396000f3fe6080604052600436106100855760003560e01c80636103d915116100595780636103d9151461012757806378357e5314610164578063921594e71461018f578063c834d3eb146101bb578063f7c685fa146101e657610085565b806295df8f1461008a57806312065fe01461009457806335c1d349146100bf578063604a6fa9146100fc575b600080fd5b610092610211565b005b3480156100a057600080fd5b506100a96102d1565b6040516100b6919061081f565b60405180910390f35b3480156100cb57600080fd5b506100e660048036038101906100e1919061086b565b610368565b6040516100f391906108d9565b60405180910390f35b34801561010857600080fd5b506101116103a7565b60405161011e919061081f565b60405180910390f35b34801561013357600080fd5b5061014e6004803603810190610149919061086b565b6103e1565b60405161015b9190610915565b60405180910390f35b34801561017057600080fd5b50610179610414565b6040516101869190610915565b60405180910390f35b34801561019b57600080fd5b506101a4610438565b6040516101b2929190610930565b60405180910390f35b3480156101c757600080fd5b506101d0610753565b6040516101dd919061081f565b60405180910390f35b3480156101f257600080fd5b506101fb610759565b604051610208919061081f565b60405180910390f35b60013414610254576040517f08c379a000000000000000000000000000000000000000000000000000000000815260040161024b906109b6565b60405180910390fd5b6001339080600181540180825580915050600190039060005260206000200160009091909190916101000a81548173ffffffffffffffffffffffffffffffffffffffff021916908373ffffffffffffffffffffffffffffffffffffffff160217905550600260008154809291906102ca90610a05565b9190505550565b60008060009054906101000a900473ffffffffffffffffffffffffffffffffffffffff1673ffffffffffffffffffffffffffffffffffffffff163373ffffffffffffffffffffffffffffffffffffffff1614610362576040517f08c379a000000000000000000000000000000000000000000000000000000000815260040161035990610a99565b60405180910390fd5b47905090565b6001818154811061037857600080fd5b906000526020600020016000915054906101000a900473ffffffffffffffffffffffffffffffffffffffff1681565b600044426001805490506040516020016103c393929190610ada565b6040516020818303038152906040528051906020012060001c905090565b60036020528060005260406000206000915054906101000a900473ffffffffffffffffffffffffffffffffffffffff1681565b60008054906101000a900473ffffffffffffffffffffffffffffffffffffffff1681565b60008060008054906101000a900473ffffffffffffffffffffffffffffffffffffffff1673ffffffffffffffffffffffffffffffffffffffff163373ffffffffffffffffffffffffffffffffffffffff16146104c9576040517f08c379a00000000000000000000000000000000000000000000000000000000081526004016104c090610b63565b60405180910390fd5b60036001805490501015610512576040517f08c379a000000000000000000000000000000000000000000000000000000000815260040161050990610bf5565b60405180910390fd5b61051a6102d1565b600581905550600061052a6103a7565b905060006001805490508261053f9190610c44565b90506001818154811061055557610554610c75565b5b9060005260206000200160009054906101000a900473ffffffffffffffffffffffffffffffffffffffff16600660006101000a81548173ffffffffffffffffffffffffffffffffffffffff021916908373ffffffffffffffffffffffffffffffffffffffff160217905550600660009054906101000a900473ffffffffffffffffffffffffffffffffffffffff1673ffffffffffffffffffffffffffffffffffffffff166108fc6005549081150290604051600060405180830381858888f1935050505015801561062a573d6000803e3d6000fd5b5060016004600082825461063e9190610ca4565b92505081905550600660009054906101000a900473ffffffffffffffffffffffffffffffffffffffff1660036000600454815260200190815260200160002060006101000a81548173ffffffffffffffffffffffffffffffffffffffff021916908373ffffffffffffffffffffffffffffffffffffffff160217905550600067ffffffffffffffff8111156106d6576106d5610cd8565b5b6040519080825280602002602001820160405280156107045781602001602082028036833780820191505090505b506001908051906020019061071a92919061075f565b506000600281905550600660009054906101000a900473ffffffffffffffffffffffffffffffffffffffff166005549350935050509091565b60045481565b60025481565b8280548282559060005260206000209081019282156107d8579160200282015b828111156107d75782518260006101000a81548173ffffffffffffffffffffffffffffffffffffffff021916908373ffffffffffffffffffffffffffffffffffffffff1602179055509160200191906001019061077f565b5b5090506107e591906107e9565b5090565b5b808211156108025760008160009055506001016107ea565b5090565b6000819050919050565b61081981610806565b82525050565b60006020820190506108346000830184610810565b92915050565b600080fd5b61084881610806565b811461085357600080fd5b50565b6000813590506108658161083f565b92915050565b6000602082840312156108815761088061083a565b5b600061088f84828501610856565b91505092915050565b600073ffffffffffffffffffffffffffffffffffffffff82169050919050565b60006108c382610898565b9050919050565b6108d3816108b8565b82525050565b60006020820190506108ee60008301846108ca565b92915050565b60006108ff82610898565b9050919050565b61090f816108f4565b82525050565b600060208201905061092a6000830184610906565b92915050565b60006040820190506109456000830185610906565b6109526020830184610810565b9392505050565b600082825260208201905092915050565b7f6d696e696d756d20656e747279207072696365206973206f6e65206574686572600082015250565b60006109a0602083610959565b91506109ab8261096a565b602082019050919050565b600060208201905081810360008301526109cf81610993565b9050919050565b7f4e487b7100000000000000000000000000000000000000000000000000000000600052601160045260246000fd5b6000610a1082610806565b91507fffffffffffffffffffffffffffffffffffffffffffffffffffffffffffffffff8203610a4257610a416109d6565b5b600182019050919050565b7f6f6e6c79206d616e616765722063616e207365652062616c616e636500000000600082015250565b6000610a83601c83610959565b9150610a8e82610a4d565b602082019050919050565b60006020820190508181036000830152610ab281610a76565b9050919050565b6000819050919050565b610ad4610acf82610806565b610ab9565b82525050565b6000610ae68286610ac3565b602082019150610af68285610ac3565b602082019150610b068284610ac3565b602082019150819050949350505050565b7f6f6e6c79204d616e616765722063616e2063686f6f73652077696e6e65720000600082015250565b6000610b4d601e83610959565b9150610b5882610b17565b602082019050919050565b60006020820190508181036000830152610b7c81610b40565b9050919050565b7f796f752063616e206f6e6c792063686f6f73652077696e6e657220616674657260008201527f2033206d656d6265727300000000000000000000000000000000000000000000602082015250565b6000610bdf602a83610959565b9150610bea82610b83565b604082019050919050565b60006020820190508181036000830152610c0e81610bd2565b9050919050565b7f4e487b7100000000000000000000000000000000000000000000000000000000600052601260045260246000fd5b6000610c4f82610806565b9150610c5a83610806565b925082610c6a57610c69610c15565b5b828206905092915050565b7f4e487b7100000000000000000000000000000000000000000000000000000000600052603260045260246000fd5b6000610caf82610806565b9150610cba83610806565b9250828201905080821115610cd257610cd16109d6565b5b92915050565b7f4e487b7100000000000000000000000000000000000000000000000000000000600052604160045260246000fdfea2646970667358221220ce3d466e9dea47c0c0ca71f1008fb878bebcb53181fe178c303b48a83b8f023a64736f6c63430008120033",
  "linkReferences": {},
  "deployedLinkReferences": {}
}